{
  "abi": [
    {
      "inputs": [
        {
          "internalType": "address",
          "name": "_arbitrator",
          "type": "address"
        },
        {
          "internalType": "uint256",
          "name": "_deadline",
          "type": "uint256"
        },
        {
          "internalType": "uint256",
          "name": "_goal",
          "type": "uint256"
        },
        {
          "internalType": "uint256",
          "name": "_contribCompPct",
          "type": "uint256"
        },
        {
          "internalType": "uint256",
          "name": "_sponsorCompPct",
          "type": "uint256"
        }
      ],
      "name": "createDAC",
      "outputs": [
        {
          "internalType": "contract DAC",
          "name": "",
          "type": "address"
        }
      ],
      "stateMutability": "payable",
      "type": "function"
    }
  ],
  "bytecode": {
    "object": "0x608060405234801561001057600080fd5b50610e36806100206000396000f3fe60806040526004361061001e5760003560e01c8063f0c9aabc14610023575b600080fd5b6100366100313660046101d3565b610052565b6040516001600160a01b03909116815260200160405180910390f35b600068056bc75e2d63100000610069846064610239565b6100739086610252565b61008590670de0b6b3a7640000610252565b61008f9190610269565b3410156100e35760405162461bcd60e51b815260206004820152601960248201527f496e73756666696369656e742073706f6e736f722066756e640000000000000060448201526064015b60405180910390fd5b68056bc75e2d631000006100f8846064610239565b6101029086610252565b61011490670de0b6b3a7640000610252565b61011e9190610269565b34111561015a5760405162461bcd60e51b815260206004820152600a60248201526913dd995c999d5b99195960b21b60448201526064016100da565b600033878787878760405161016e906101c6565b6001600160a01b03968716815295909416602086015260408501929092526060840152608083015260a082015260c001604051809103906000f0801580156101ba573d6000803e3d6000fd5b50979650505050505050565b610b758061028c83390190565b600080600080600060a086880312156101eb57600080fd5b85356001600160a01b038116811461020257600080fd5b97602087013597506040870135966060810135965060800135945092505050565b634e487b7160e01b600052601160045260246000fd5b8082018082111561024c5761024c610223565b92915050565b808202811582820484141761024c5761024c610223565b60008261028657634e487b7160e01b600052601260045260246000fd5b50049056fe608060405234801561001057600080fd5b50604051610b75380380610b7583398101604081905261002f91610098565b600080546001600160a01b039788166001600160a01b03199182161790915560018054969097169516949094179094556002919091556003556004919091556005556008805460ff191690556100f6565b6001600160a01b038116811461009557600080fd5b50565b60008060008060008060c087890312156100b157600080fd5b86516100bc81610080565b60208801519096506100cd81610080565b6040880151606089015160808a015160a0909a0151989b929a5090989097909650945092505050565b610a70806101056000396000f3fe6080604052600436106100c25760003560e01c806377c936621161007f578063c19d93fb11610059578063c19d93fb146101e3578063d186fafd1461020a578063d7bb99ba1461022a578063e89593b31461023257600080fd5b806377c936621461019857806380a474bb146101b8578063bd0002d2146101cd57600080fd5b806329dcb0cf146100c757806337c08923146100f0578063401938831461010657806342e94c901461011c578063590e1ae3146101495780636cc6cde114610160575b600080fd5b3480156100d357600080fd5b506100dd60025481565b6040519081526020015b60405180910390f35b3480156100fc57600080fd5b506100dd60075481565b34801561011257600080fd5b506100dd60035481565b34801561012857600080fd5b506100dd61013736600461095d565b60066020526000908152604090205481565b34801561015557600080fd5b5061015e610248565b005b34801561016c57600080fd5b50600154610180906001600160a01b031681565b6040516001600160a01b0390911681526020016100e7565b3480156101a457600080fd5b50600054610180906001600160a01b031681565b3480156101c457600080fd5b5061015e6103d6565b3480156101d957600080fd5b506100dd60055481565b3480156101ef57600080fd5b506008546101fd9060ff1681565b6040516100e79190610997565b34801561021657600080fd5b5061015e61022536600461095d565b6105fe565b61015e61076e565b34801561023e57600080fd5b506100dd60045481565b600360085460ff16600381111561026157610261610981565b1461026e5761026e61090c565b600360085460ff16600381111561028757610287610981565b146102f45760405162461bcd60e51b815260206004820152603260248201527f436f6e7472616374206d75737420626520696e206661696c75726520737461746044820152716520746f20697373756520726566756e647360701b60648201526084015b60405180910390fd5b600068056bc75e2d63100000600454670de0b6b3a764000061031691906109d5565b61032091906109f2565b61032b906001610a14565b3360009081526006602052604090205461034591906109d5565b9050478111156103975760405162461bcd60e51b815260206004820152601960248201527f416d6f756e74206973206e6f74206c65712062616c616e63650000000000000060448201526064016102eb565b336000818152600660205260408082208290555183156108fc0291849190818181858888f193505050501580156103d2573d6000803e3d6000fd5b5050565b6000546001600160a01b031633146104415760405162461bcd60e51b815260206004820152602860248201527f4d6574686f642063616e206f6e6c792062652063616c6c6564206279207468656044820152671039b837b739b7b960c11b60648201526084016102eb565b600360085460ff16600381111561045a5761045a610981565b146104675761046761090c565b600360085460ff16600381111561048057610480610981565b146104d75760405162461bcd60e51b815260206004820152602160248201527f436f6e7472616374206d75737420626520696e206661696c75726520737461746044820152606560f81b60648201526084016102eb565b6000600354670de0b6b3a76400006104ef91906109d5565b6007546104fd9060646109d5565b61050f90670de0b6b3a76400006109d5565b61051991906109f2565b905060648110156105fb576000610531826064610a27565b9050600069021e19e0c9bab24000008260045460035461055191906109d5565b61055b91906109d5565b61056d90670de0b6b3a76400006109d5565b61057791906109f2565b9050478111156105be5760405162461bcd60e51b81526020600482015260126024820152714e6f7420656e6f7567682062616c616e636560701b60448201526064016102eb565b600080546040516001600160a01b039091169183156108fc02918491818181858888f193505050501580156105f7573d6000803e3d6000fd5b5050505b50565b6001546001600160a01b031633146106645760405162461bcd60e51b8152602060048201526024808201527f4f6e6c792061726269747261746f722063616e20617574686f72697a652070616044820152631e5bdd5d60e21b60648201526084016102eb565b600160085460ff16600381111561067d5761067d610981565b146106b75760405162461bcd60e51b815260206004820152600a602482015269139bdd08199d5b99195960b21b60448201526064016102eb565b6008805460ff191660021790556000546005546003546001600160a01b03909216916108fc9168056bc75e2d63100000916106f291906109d5565b61070490670de0b6b3a76400006109d5565b61070e91906109f2565b6040518115909202916000818181858888f19350505050158015610736573d6000803e3d6000fd5b506003546040516001600160a01b0383169180156108fc02916000818181858888f193505050501580156103d2573d6000803e3d6000fd5b600060085460ff16600381111561078757610787610981565b146107cb5760405162461bcd60e51b81526020600482015260146024820152734e6f7420696e2066756e64696e6720737461746560601b60448201526064016102eb565b600254421061080e5760405162461bcd60e51b815260206004820152600f60248201526e111958591b1a5b99481c185cdcd959608a1b60448201526064016102eb565b60003460075461081e9190610a14565b9050600068056bc75e2d63100000600554606461083b9190610a14565b60035461084891906109d5565b61085a90670de0b6b3a76400006109d5565b61086491906109f2565b9050808211156108b65760405162461bcd60e51b815260206004820152601e60248201527f436f6e747269627574696f6e20776f756c642065786365656420676f616c000060448201526064016102eb565b8082036108cb576008805460ff191660011790555b33600090815260066020526040812080543492906108ea908490610a14565b9250508190555034600760008282546109039190610a14565b90915550505050565b600060085460ff16600381111561092557610925610981565b148015610933575060025442115b15610946576008805460ff191660031790555b565b6001600160a01b03811681146105fb57600080fd5b60006020828403121561096f57600080fd5b813561097a81610948565b9392505050565b634e487b7160e01b600052602160045260246000fd5b60208101600483106109b957634e487b7160e01b600052602160045260246000fd5b91905290565b634e487b7160e01b600052601160045260246000fd5b80820281158282048414176109ec576109ec6109bf565b92915050565b600082610a0f57634e487b7160e01b600052601260045260246000fd5b500490565b808201808211156109ec576109ec6109bf565b818103818111156109ec576109ec6109bf56fea2646970667358221220a52a767f9ecd71d2bae51eee98dc5b2d83ac002befff07788014bef534a802f264736f6c63430008110033a26469706673582212201385ea660d75d229ba636222d25ca75ad4a1c930b1f8b4f6d1328b5351a022e864736f6c63430008110033",
    "linkReferences": {}
  },
  "methodIdentifiers": {
    "createDAC(address,uint256,uint256,uint256,uint256)": "f0c9aabc"
  },
  "id": 0
}